:0A0000000C9434000C9400000C94E2
:10000A0000000C9400000C9400000C9400000C9466
:10001A0000000C9400000C9400000C9400000C9456
:10002A0000000C9400000C9400000C9400000C9446
:10003A0000000C9400000C9400000C9400000C9436
:10004A0000000C9400000C94000001002D4E414E5B
:10005A0000494E4600000100600254000000F89476
:10006A00EE27ECBBF1E0FBBFEBBFE5BF8DE0A2E002
:10007A00BB27ED938A95E9F780E098E0A0E6ED9337
:10008A000197E9F7E0E6F0E085919591009761F034
:10009A00A591B59105901590BF01F00105900D92BB
:1000AA000197E1F7FB01F0CFEFE5EDBFE8E0EEBF26
:1000BA00C0E6D2E00C946100EFEFEABBE7BB02D0E6
:1000CA00FECFFFCF2897E8E0E883E0E0E983E3E0AA
:1000DA00EA83E0E0EB83E7E0EC83E0E0ED83E2E053
:1000EA00EE83E0E0EF830E940F0528853985EE81D3
:1000FA00FF812E173F070CF067C00E94A002F9018A
:10010A000E94A7020E945403AF01E3E0F0E0E21765
:10011A00F307A9F40C851D85EA85FB850E171F07D1
:10012A0074F40E94A002F8010E94A7020E94AF0282
:10013A0088EE93E00197F1F70F5F1F4FEDCFE4E0F0
:10014A00F0E0E217F30749F40E94A002EE85FF856A
:10015A0032970E94A7020E94AF02E5E0F0E0E217A0
:10016A00F30749F40E94A002EE85FF8533970E94A7
:10017A00A7020E94AF02E6E0F0E0E217F30749F4B3
:10018A000E94A002EE85FF8532970E94A7020E9474
:10019A00AF02E7E0F0E0E217F30799F4EA85FB859E
:1001AA0031978F01EC85FD850E171F0754F00E94C9
:1001BA00A002F8010E94A7020E94AF02015010405B
:1001CA00F1CF2F5F3F4F93CF90CF0E94EE047B81F8
:1001DA006A81F981E88177FB770F67FD7160972F54
:1001EA009E5781F078F0983190F4AA27BB27882788
:1001FA0008948795B795A7959A95D1F7EA23FB2393
:10020A00682305C0E8947727EE27FF2766276F77CC
:10021A00769508F4606877F9A991B99189919991CD
:10022A00EA17FB076807790797FB08950E94EE040F
:10023A000E94DF040E94EA000E94E40419F40E946A
:10024A00B60205C0E6F70E94B6020E94B9022496D9
:10025A0008950E94EE0424971A930A930E94C002FA
:10026A000E9404052CF0EFEFFFEF6FE77FEF73C0FA
:10027A000E94C5020E94E904ADB7BEB711971F9349
:10028A000F930E9402030F911F910E94CA020E94BB
:10029A00C002E3EFF4E065E37FE30E94A80440F4C0
:1002AA000E94CF020E94C5030E94CA020150104058
:1002BA000E94C5020E94B9027F936F93FF93EF9346
:1002CA000E94C502A0E0B0E080E89FE30E94C50357
:1002DA00AF91BF918F919F910E9463040E94CA02BD
:1002EA000E94CF020E94D102A6E2B2E485E69FE311
:1002FA000E94D802EEE4F1E164E570E40E94DD02B6
:10030A000E94C0020E9415047F936F93FF93EF939C
:10031A000E94E202ADE4B1E184ED9FE30E94BE03D4
:10032A00AF91BF918F919F910E9463047F936F93C6
:10033A00FF93EF93F8010E94D0040E948B03A8E177
:10034A00B2E781E39FE30E941504AF91BF918F91B9
:10035A009F910E94C503198108812A9608950E94D7
:10036A00EE0428971A930A930E94E702E0E5FCEA52
:10037A006EEA72EC0E94A80418F40E94EC0285C08E
:10038A00EA85FB856C857D850E94000529F4E0E0FD
:10039A00F0E060E87FE379C00E94E702E8E1F2E773
:1003AA0061EB72E40E94A80409F008F405C0EFEFBB
:1003BA00FFEF6FE77FE769C00E94E702EBE3FAEA23
:1003CA0068EB7FE30E941504EA87FB876C877D87C9
:1003DA000E94E7022BDF0E9454038F010E94E7026A
:1003EA000E94D0040E948B030E94DD02DF01CB0130
:1003FA00E0E0F0E060E07FE30E94DD020E94CA02D2
:10040A000E94CF020E94D102ADE6BCE48CE69DE3D5
:10041A000E941504A6EAB3EE86EE90E40E94C50394
:10042A000E94C0020E9415040E94CA020E94E202AF
:10043A00A8E2BDE886EA91E40E94C503EA83FB8349
:10044A006C837D830E94C502AA81BB818C819D81B8
:10045A000E94C503A3EFB4E085EB9FE30E94150455
:10046A007F936F93FF93EF930E94C0020E94E20270
:10047A000E94BE03AF91BF918F919F910E94630426
:10048A000E94E904D8010E941303198108812E965B
:10049A0008950E94EE0424970E94F1020E9400052A
:1004AA0019F40E94EC0245C0A885B9858A859B8506
:1004BA000E94040594F40E94F6020E94000529F4A1
:1004CA00E0E0F0E060E87FE334C0A885B9858A857A
:1004DA009B850E94FB0243DF2CC00E94F602DE01CC
:1004EA000E9454030E94D5040E94B6020E948B0304
:1004FA00DF01CB010E94F6020E940A0519F00E9450
:10050A00EC0217C00E94F1020E941F03DF01CB0117
:10051A000E94FB0224DFE887F9876A877B87E881E4
:10052A00E17019F40E94F10204C00E94F1020E94D3
:10053A001F032C960895E0E0F0E060E070E40E946A
:10054A00E90408950E94D0040E948B03DF01CB01C5
:10055A000C944E020E945203EBBBE42FE095E8BBD9
:10056A0008950E94DA040895A0E0B0E080E89FE3CD
:10057A000E94BE030895AE81BF818885998508953A
:10058A00EE81FF81688579850895EE83FF83688708
:10059A0079870895F5DFEFCF0E941504EA83FB837C
:1005AA006C837D8308950E941504DF01CB010895B1
:1005BA000E94F3040E94BE030895EA81FB816C81C4
:1005CA007D810895AA85BB858C859D850895E0E087
:1005DA00F0E060E070E00895E885F9856A857B853A
:1005EA000895EC81FD816E817F8108950E942E011C
:1005FA00AC81BD818E819F81D6CFE991F9916991B4
:10060A00799177FB660F771F88277E57880B7D9332
:10061A008C937EE7769567956EF00895E991F99146
:10062A006991799177FB660F771F7A0F76956795AF
:10063A000EF0089530976040704009F070580895A0
:10064A00552342F4503811F4E0FF04C03196691F73
:10065A00791F6BF050E8572711F45F93CFC05F3FC3
:10066A0031F0660F000C57956795752F08955F93C3
:10067A0000200AF0CFC0C8C050E8192E1522880FF2
:10068A00991F9527550F879550E8072E0522660F63
:10069A00771F7527550F67950895689401C0E894E8
:1006AA005F93F2DF703818F07F3F08F4A7C056E175
:1006BA00571BAAF4519558300EF4593030F0EFEF29
:1006CA00FFEF6FEF7FE777F91AC077275523B9F065
:1006DA00EE0FFF1F661F771F5A95D1F710C07727B5
:1006EA00583028F0EF2FF62F672F5850F9CF55239F
:1006FA0031F076956795F795E7955A95D1F70020E9
:10070A000AF441D15F910895689401C0E894309742
:10071A0060407040B1F0002426F0772312F4009470
:10072A0032D1172E7EE1112032F07A95EE0FFF1F9B
:10073A00661F111CF9CFEF2FF62F612D5F938ADF09
:10074A005F9108954F93AF01FD01DA01AB01BC013E
:10075A00CA01402D012C142E4F910895EA0FFB1F58
:10076A00681F0895E095F0956095EF5FFF4F6F4F12
:10077A0008955F9381DF903871F150E8152604C01F
:10078A005F937ADF903839F1703821F1572F591B6E
:10079A002BF112F4D7DFFACF583118F0AA27BB276A
:1007AA008827583028F0AB2FB82F88275850F9CF10
:1007BA00552329F08695B795A7955A95D9F7502DBF
:1007CA00512572F0CBDF38F46795F795E795739565
:1007DA0013F420C0B7DF3EDF5F910895D8F7FBCF4F
:1007EA00EA1BFB0B680B51F010F40094BBDF662385
:1007FA0092F3EE0FFF1F661F7A95CBF7EE27FF27BE
:10080A00662777275F910895EFEFFFEF6FE77FEF96
:10081A005F910895EFEFFFEF6FE77FE75F9108952C
:10082A005F932ADF703851F3903841F3012408941A
:10083A00791F23F41CF300203AF3ECCF0F921F9395
:10084A002F933F934F93112722279927689FA0013F
:10085A008F9F302D410D591F6B9F300D411D591F20
:10086A008E9F27D0BF9F25D06A9F23D0BE9F1DD0C1
:10087A00AF9F1BD0AE9F110D291F391F491F591F4A
:10088A00E32FF42F652F522F4F913F912F911F91F4
:10089A000F9066232AF0550FEE1FFF1F661F02C036
:1008AA0073954BF2CDDE5F910895100D211D391F0E
:1008BA0002C0200D311D491F591F08955F93DCDEC8
:1008CA00703821F411200AF49FCFA4CF903809F48C
:1008DA0095CF01240894970B1BF4D4F30020F3CF8F
:1008EA00792F1F932F933F934F9311241127222778
:1008FA0033274427552790E2AE17BF0786074107DB
:10090A0030F0AE1BBF0B860B410B089401C08894D4
:10091A00551F221F331F111CAA1FBB1F881F441FEC
:10092A009A9551F7F901612D4F913F912F911F919E
:10093A00662332F0550FEE1FFF1F661F7A9543F2AA
:10094A007FDE5F91089599239AF0772342F09717F3
:10095A0048F029F4AE17BF07860720F031F09894C3
:10096A0088940895989408940895189488940895FA
:10097A007723C2F7971798F3A9F7EA17FB076807CF
:10098A0088F399F3ECCFF09560957095E195FF4F58
:10099A006F4F7F4F08956F2F660F660B762F08955E
:1009AA00ED93FD936D937C930895E881F9816A81B3
:1009BA007B810895A881B9818A819B810895E88302
:1009CA00F9836A837B8308957A936A93FA93EA9305
:1009DA0008959A938A93BA93AA930895182E862F04
:1009EA00612D192E972F712D1B2EBF2FF12D1A2E27
:1009FA00AE2FE12D0895309760407040089500248D
:100A0A000A160B06080609060895EA17FB0768077F
:100A1A00790708955A934A933A932A931A930A9311
:100A2A0008955D814C813B812A811981088108954D
:00000001FF
